Onderdeelnummer   Omschrijving onderdeel                  P M Datum   Lijstprijs  Gewicht    Verp FPL S PCC  MPC  R Nie
PART-001-12345678 HYDRAULIC PUMP ASSEMBLY MODEL XL-2000  A Y20250115  0000123450000001234567 00001HPMP1234512345N000
PART-002-87654321 FILTER ELEMENT OIL 10 MICRON           B N20250110  0000045600000000125000 00010FILT5678956789Y001
PART-003-11223344 SEAL KIT COMPLETE WITH O-RINGS         A Y20250120  0000089900000000345678 00005SEAL1111111111N000
PART-004-99887766 BEARING ROLLER TAPERED 50MM            C Y20250105  0000234500000002456789 00001BEAR2222222222N002
PART-005-55443322 GASKET SET ENGINE OVERHAUL             A N20250118  0000567800000001567890 00001GASK3333333333Y000

